:020000040800F2
:10000000002800203506000885060008850600083F
:100010008506000885060008850600080000000027
:10002000000000000000000000000000850600083D
:100030008506000800000000850600088506000807
:100040008506000885060008850600088506000864
:100050008506000885060008850600088506000854
:100060008506000885060008850600088506000844
:100070008506000885060008850600088506000834
:100080008506000885060008850600088506000824
:100090008506000885060008850600088506000814
:1000A0008506000885060008850600088506000804
:1000B00085060008850600088506000885060008F4
:1000C00085060008850600088506000885060008E4
:1000D00085060008850600088506000885060008D4
:1000E0008506000885060008000000008506000857
:1000F00085060008850600088506000885060008B4
:1001000085060008850600088506000885060008A3
:100110008506000885060008850600088506000893
:100120008506000885060008850600088506000883
:1001300010B5054C237833B9044B13B10448AFF321
:1001400000800123237010BD00000020000000008B
:10015000D006000808B5034B1BB103490348AFF3B1
:10016000008008BD0000000004000020D006000848
:1001700080B483B000AF0346FB710B46BB711346DE
:100180007B71FB79022B7AD0022B00F3B180002B1C
:1001900002D0012B3AD0ABE0BB79072B17D85A4BD2
:1001A0001B68BA7992000F2101FA02F2D24311467C
:1001B000554A0B401360544B1B687979BA79920009
:1001C00001FA02F21146504A0B43136092E0BB79E8
:1001D0000F2B00F28F80BB79083BBB714B4B1B6828
:1001E000BA7992000F2101FA02F2D2431146474A2E
:1001F0000B401360454B1B687979BA79920001FA7C
:1002000002F21146414A0B43136073E0BB79072B9E
:1002100017D83F4B1B68BA7992000F2101FA02F2FE
:10022000D24311463A4A0B401360394B1B68797927
:10023000BA79920001FA02F21146354A0B43136073
:100240005AE0BB790F2B57D8BB79083BBB71314BB8
:100250001B68BA7992000F2101FA02F2D2431146CB
:100260002C4A0B4013602B4B1B687979BA799200AA
:1002700001FA02F21146274A0B4313603CE0BB79B6
:10028000072B17D8244B1B68BA7992000F2101FA6B
:1002900002F2D2431146204A0B4013601E4B1B68EA
:1002A0007979BA79920001FA02F211461A4A0B439F
:1002B000136023E0BB790F2B20D8BB79083BBB71BF
:1002C000164B1B68BA7992000F2101FA02F2D24351
:1002D0001146124A0B401360104B1B687979BA79AA
:1002E000920001FA02F211460C4A0B43136005E03A
:1002F00000BF04E000BF02E000BF00E000BF00BF9D
:100300000C37BD4680BC704700080140040801401E
:10031000000C0140040C0140001001400410014099
:1003200080B483B000AF0346FB710B46BB7113462C
:100330007B71FB79022B40D0022B60DC002B02D0BA
:10034000012B1DD05BE07B79012B0AD12E4B1B6862
:10035000BA79012101FA02F211462B4A0B431360CC
:1003600048E07B79002B45D1274B1B68BA790121E6
:1003700001FA02F2D2431146234A0B40136039E0DE
:100380007B79012B0AD1214B1B68BA79012101FA33
:1003900002F211461D4A0B4313602DE07B79002BBE
:1003A0002AD11A4B1B68BA79012101FA02F2D24311
:1003B0001146164A0B4013601EE07B79012B0AD1CF
:1003C000134B1B68BA79012101FA02F21146104A57
:1003D0000B43136012E07B79002B0FD10C4B1B6891
:1003E000BA79012101FA02F2D2431146084A0B40C0
:1003F000136003E000BF02E000BF00E000BF00BFE9
:100400000C37BD4680BC70470C0801400C0C014005
:100410000C10014080B485B000AF03460A46FB7162
:100420001346BB710023FB73FB79022B1AD0022BFE
:1004300022DC002B02D0012B0AD01DE0114B1A68E0
:10044000BB7922FA03F3DBB203F00103FB7313E081
:100450000D4B1A68BB7922FA03F3DBB203F00103F8
:10046000FB7309E0094B1A68BB7922FA03F3DBB28C
:1004700003F00103FB7300BFFB7B18461437BD4636
:1004800080BC704708080140080C0140081001407A
:1004900080B582B000AF03460A46FB711346BB71BC
:1004A000FB79022B14D0022B19DC002B02D0012B7C
:1004B00007D014E0B979FB7902221846FFF758FEFD
:1004C0000EE0B979FB7902221846FFF751FE07E0EA
:1004D000B979FB7902221846FFF74AFE00E000BF17
:1004E00000BF0837BD4680BD80B584B000AF03466D
:1004F0000A46FB711346BB71BA79FB79114618465F
:10050000FFF788FF0346FB73FB7B012B06D1B9790C
:10051000FB7900221846FFF703FF05E0B979FB7964
:1005200001221846FFF7FCFE00BF1037BD4680BD14
:1005300080B400AF054B4FF480321A60044B0122A7
:100540001A6000BFBD4680BC704700BF001002406B
:100550000410024080B483B000AF03460A46FB712A
:100560001346BB71BB791F2B2AD8FB79022B1CD0F9
:10057000022B25DC002B02D0012B0BD020E0134BEB
:100580001B68BA79012101FA02F211460F4A0B43A6
:10059000136015E00E4B1B68BA79012101FA02F2D3
:1005A00011460B4A0B4313600AE00A4B1B68BA79E9
:1005B000012101FA02F21146064A0B43136000BF03
:1005C00000BF0C37BD4680BC704700BF141002400E
:1005D0001C1002401810024080B582B000AFFFF737
:1005E000A7FF02210220FFF7B5FF03210220FFF73A
:1005F000B1FF04210220FFF7ADFF00210120FFF72A
:1006000047FF09210020FFF743FF00210120FFF7EA
:100610006BFF09210020FFF767FF00237B6002E0EA
:100620007B6801337B607B6842F20F729342F7DD97
:10063000EBE700000D488546AFF300800C480D49FC
:100640000D4A002302E0D458C4500433C4188C422D
:10065000F9D30A4A0A4C002301E013600432A24293
:10066000FBD300F011F8FFF7B7FFFEE700280020EA
:100670000000002000000020F0060008000000201C
:100680001C000020FEE7000070B500260C4D0D4C4C
:10069000641BA410A64209D100F01AF800260A4DE6
:1006A0000A4C641BA410A64205D170BD55F8043B4A
:1006B00098470136EEE755F8043B98470136F2E7D4
:1006C000E8060008E8060008E8060008EC0600084E
:1006D000F8B500BFF8BC08BC9E467047F8B500BF2F
:0806E000F8BC08BC9E467047FF
:0406E80055010008B0
:0406EC0031010008D0
:0400000508000635B4
:00000001FF
